:100000000C942A000C9447000C9447000C94470071
:100010000C9447000C9447000C9447000C94470044
:100020000C9447000C9447000C9447000C94470034
:100030000C9447000C9484030C9447000C944700E4
:100040000C9447000C9447000C9447000C94470014
:100050000C94470011241FBECFE5D8E0DEBFCDBF12
:1000600010E0A0E6B0E0E0EFF7E002C005900D92EE
:10007000A43BB107D9F720E0A4EBB0E001C01D928A
:10008000A73BB207E1F70E94A3010C94F6030C947E
:1000900000008830E8F461110EC04BB321E030E07D
:1000A000B90102C0660F771F8A95E2F7CB018095F0
:1000B00084238BBB08954BB321E030E0B90102C02B
:1000C000660F771F8A95E2F7CB01842B8BBB0895CF
:1000D00098EF980F9830F0F461110EC048B321E00A
:1000E00030E0B90102C0660F771F9A95E2F7CB01A5
:1000F0008095842388BB089548B3885021E030E080
:10010000B90102C0660F771F8A95E2F7CB01842BF5
:1001100088BB089590EF980F9830F0F461110EC0ED
:1001200045B321E030E0B90102C0660F771F9A9510
:10013000E2F7CB018095842385BB089545B38051B8
:1001400021E030E0B90102C0660F771F8A95E2F71F
:10015000CB01842B85BB089598EE980F9830E8F476
:1001600061110EC042B321E030E0B90102C0660F58
:10017000771F9A95E2F7CB018095842382BB08957F
:1001800042B3885121E030E0B90102C0660F771F09
:100190008A95E2F7CB01842B82BB08958830E8F47E
:1001A00061110EC04AB321E030E0B90102C0660F10
:1001B000771F8A95E2F7CB01809584238ABB089547
:1001C0004AB321E030E0B90102C0660F771F8A957B
:1001D000E2F7CB01842B8ABB089598EF980F9830F3
:1001E000F0F461110EC047B321E030E0B90102C064
:1001F000660F771F9A95E2F7CB018095842387BB22
:10020000089547B3885021E030E0B90102C0660F7D
:10021000771F8A95E2F7CB01842B87BB089590EF77
:10022000980F9830F0F461110EC044B321E030E033
:10023000B90102C0660F771F9A95E2F7CB0180954E
:10024000842384BB089544B3805121E030E0B90198
:1002500002C0660F771F8A95E2F7CB01842B84BB1F
:10026000089598EE980F9830E8F461110EC041B3EC
:1002700021E030E0B90102C0660F771F9A95E2F7DE
:10028000CB018095842381BB089541B3885121E03F
:1002900030E0B90102C0660F771F8A95E2F7CB0103
:1002A000842B81BB089586E690E00E9475038DE063
:1002B0000E9471038AE00E9471032FEF89E698E1A2
:1002C000215080409040E1F700C0000082E790E0BC
:1002D0000E9475038DE00E9471038AE00E94710301
:1002E0002FEF89E698E1215080409040E1F700C06F
:1002F00000008EE790E00E9475038DE00E9471037C
:100300008AE00E9471032FEF89E698E12150804036
:100310009040E1F700C0000082E990E00E94750380
:100320008DE00E9471038AE00E9471032FEF89E63D
:1003300098E1215080409040E1F700C0000008950E
:100340008093B600089540EA51E060E875E280E0ED
:1003500090E00E9441030E94FD010E9453010E940F
:10036000630278948091B600873771F40E940E0280
:1003700084E60E94790261E08CE00E94CE0061E098
:100380008CE00E944900EECF833771F484E60E942E
:10039000790261E08DE00E94CE0061E08DE00E9474
:1003A00049000E941F02DECF843669F40E94790260
:1003B0000E94300261E08EE00E94CE0061E08EE09B
:1003C0000E944900CFCF813691F484E60E947902E1
:1003D0000E94410260E08EE00E94490060E08DE0F2
:1003E0000E94490060E08CE00E944900BBCF813749
:1003F00009F0B8CF0E945202B5CF61E08EE10E94B1
:10040000CE0061E08FE10E94CE0061E08AE10E94AF
:10041000CE0061E08BE10E94CE00089561E08EE1A4
:100420000E94490060E08FE10E94490061E08AE19A
:100430000E94490060E08BE10E944900089560E05D
:100440008EE10E94490061E08FE10E94490060E076
:100450008AE10E94490061E08BE10E944900089511
:1004600061E08EE10E94490060E08FE10E94490056
:1004700060E08AE10E94490061E08BE10E9449004E
:10048000089560E08EE10E94490061E08FE10E94E2
:10049000490061E08AE10E94490060E08BE10E942E
:1004A0004900089560E08EE10E94490060E08FE11C
:1004B0000E94490060E08AE10E94490060E08BE10F
:1004C0000E94490008950E94880280916000813056
:1004D00039F483B7806183BF83B7806283BF089597
:1004E000811106C083B78F7E83BF83B7806283BFCD
:1004F000089564E670E09B01281B31094FEF429F8D
:10050000C001439F900D11240E94AC036CBF08955D
:100510001CBE13BE12BE8091610081110DC083B755
:100520008F7B83BF83B7877F83BF83B78F7E83BF74
:1005300083B78F7D83BF26C0813039F483B7806451
:1005400083BF83B7877F83BF1DC0823069F483B7C1
:100550008F7B83BF83B7886083BF83B7806183BF8E
:1005600083B78F7D83BF0EC0833061F483B780640F
:1005700083BF83B7886083BF83B7806183BF83B73E
:10058000806283BF8091620090916300009751F474
:1005900083B7816083BF83B78D7F83BF83B78B7F32
:1005A00083BF4EC08830910551F483B78E7F83BFDF
:1005B00083B7826083BF83B78B7F83BF41C08034A2
:1005C000910551F483B7816083BF83B7826083BF95
:1005D00083B78B7F83BF34C0811521E0920751F42C
:1005E00083B78E7F83BF83B78D7F83BF83B78460DC
:1005F00083BF26C0811524E0920751F483B7816040
:1006000083BF83B78D7F83BF83B7846083BF18C0E8
:100610008230910551F483B78E7F83BF83B78260A8
:1006200083BF83B7846083BF0BC0039749F483B74C
:10063000816083BF83B7826083BF83B7846083BFD9
:1006400080916400813039F489B7826089BF8FB7A7
:1006500080688FBF05C0811103C089B78D7F89BFB6
:1006600080916500813039F489B7816089BF8FB787
:1006700080688FBF0895811103C089B78E7F89BFBD
:100680000895CF93DF93EA01DC01CB01880F991F16
:10069000AA1FBB1F880F991FAA1FBB1F9C01AD017A
:1006A000220F331F441F551F220F331F441F551F96
:1006B00060E072E18AE790E00E94C00321503109B6
:1006C0008AB188618AB986E880BD209729F0D093E5
:1006D000B500C093B400579A30BD29B9DF91CF91CE
:1006E00008955D9BFECF8CB90895CF93DF93EC0105
:1006F0008881882331F021960E94710389918111AC
:10070000FBCFDF91CF9108951F920F920FB60F92FA
:1007100011242F933F934F935F936F937F938F9306
:100720009F93AF93BF93EF93FF938CB1E091B4008D
:10073000F091B5000995FF91EF91BF91AF919F9115
:100740008F917F916F915F914F913F912F910F907A
:100750000FBE0F901F90189597FB072E16F400946C
:1007600007D077FD09D00E94E20307FC05D03EF4D4
:10077000909581959F4F0895709561957F4F08954D
:10078000A1E21A2EAA1BBB1BFD010DC0AA1FBB1F95
:10079000EE1FFF1FA217B307E407F50720F0A21B07
:1007A000B30BE40BF50B661F771F881F991F1A9474
:1007B00069F760957095809590959B01AC01BD019E
:1007C000CF010895AA1BBB1B51E107C0AA1FBB1F85
:1007D000A617B70710F0A61BB70B881F991F5A95CD
:1007E000A9F780959095BC01CD010895F894FFCFAD
:1007F00001010001000041542B43574D4F44453D3A
:10080000320041542B4349504D55583D310041541D
:100810002B4349505345525645523D312C323232CA
:10082000320041542B43575341503D22424F424FD7
:10083000313233222C22454B52414D313233222C5E
:04084000312C330024
:00000001FF
